:020000040800F2
:100000006804002045010008BD170008BF1700085C
:10001000C3170008C7170008CB170008000000002E
:10002000000000000000000000000000CF170008E2
:10003000D117000800000000D3170008D5170008EA
:100040005F0100085F0100085F0100085F01000810
:100050005F0100085F0100085F0100085F01000800
:100060005F0100085F0100085F0100085F010008F0
:100070005F0100085F0100085F0100085F010008E0
:100080005F0100085F0100085F0100085F010008D0
:100090005F0100085F0100085F0100085F010008C0
:1000A0005F0100085F0100085F0100085F010008B0
:1000B0005F0100085F0100085F0100085F010008A0
:1000C0005F0100085F0100085F0100085F01000890
:1000D0005F010008DD1700085F0100085F010008EC
:1000E0005F0100085F0100085F0100085F01000870
:1000F0005F0100085F0100085F0100085F01000860
:100100005F0100085F0100085F0100085F0100084F
:100110005F0100085F0100085F0100085F0100083F
:100120005F0100085F0100085F0100085F0100082F
:10013000DFF80CD003F0EAFC00480047E5160008A1
:10014000680400200648804706480047FEE7FEE7AF
:10015000FEE7FEE7FEE7FEE7FEE7FEE7FEE7FEE777
:1001600047020008310100080CB500200190009002
:100170006C48006840F480306A49086000BF6948F4
:10018000006800F4003000900198401C0190009835
:1001900018B90198B0F5A06FF1D16248006800F479
:1001A000003010B10120009001E000200090009884
:1001B000012843D15C48006840F010005A490860AB
:1001C0000846006820F0030008600846006840F018
:1001D0000200086053484068524948600846406839
:1001E00048600846406840F48060486008464068BF
:1001F00020F47C1048600846406840F4E8104860ED
:100200000846006840F08070086000BF45480068FC
:1002100000F000700028F9D04248406820F0030048
:10022000404948600846406840F00200486000BF0E
:100230003C48406800F00C000828F9D10CBD10B50E
:10024000FFF792FF10BD10B53648006840F001007E
:1002500034490860084640683449084031494860DC
:1002600008460068324908402E4908600846006880
:1002700020F4802008600846406820F4FE004860B2
:100280004FF41F008860FFF7DAFF4FF00060294944
:10029000086010BD10B5002100200022214B5B68D2
:1002A00003F00C0121B1042906D0082928D107E068
:1002B000214B224C236027E01F4B204C236023E07E
:1002C000184B5B6803F47010164B5B6803F48032C4
:1002D000022303EB904022B9194B4343174C236090
:1002E0000DE0104B5B6803F4003323B1144B434320
:1002F000124C236003E0104B4343104C236003E097
:100300000D4B0E4C236000BF00BF064B5B68C3F370
:1003100003130C4CE15C094B1B68CB40074C23607A
:1003200010BD000000100240002002400000FFF855
:10033000FFFFF6FE08ED00E000127A00000000204A
:1003400000093D000400002031490143314A116099
:10035000704770B5002100230F22C47804B32D4CE0
:10036000246804F4E064C4F5E064210AC1F10403E4
:10037000CA40447804FA03F1847814402143090107
:10038000254C0678A155047804F01F050124AC40E3
:1003900005786D11AD0005F1E025C5F8004109E0D3
:1003A000047804F01F050124AC401C4D067876113A
:1003B00045F8264070BD1A4A0A400243154B1B1FE0
:1003C0001A60704739B1134A121D12680243114B6B
:1003D0001B1D1A6006E00F4A121D126882430D4B66
:1003E0001B1D1A607047042808D14FF0E0210969ED
:1003F00041F004014FF0E022116107E04FF0E021ED
:10040000096921F004014FF0E022116170470000FA
:100410000000FA050CED00E000E400E080E100E0FF
:1004200080FFFF1F002044490860091D0860091D66
:100430000860091D086041483F4914310860704751
:1004400000213D498279002A3AD00A4612680368A1
:100450009A430B461A600A1D126803689A430B1DE3
:100460001A60027911440A6803681A430A60324A22
:100470000832126803689A432F4B08331A601A1D1A
:10048000126803689A432C4B0C331A604279102A85
:100490000ED11A1F126803681A43274B08331A60DB
:1004A0001A1D126803681A43234B0C331A600DE0BF
:1004B0002149427911440A6803681A430A6005E039
:1004C000027911440A6803689A430A607047002160
:1004D000016001710C214171002181717047164941
:1004E000103109680143144A103211607047014607
:1004F0000020114A143212680A400AB1012000E0BB
:10050000002070470C4914310860704701460020F4
:100510000022094B1B6803EA0102074B14331B68D6
:100520000B4013B10AB1012000E0002070470249DE
:10053000143108607047000000040140FFFF0F0005
:1005400030B943F2DB028100A1F1C0410A6005E04D
:1005500043F2D2028100A1F1C0410A606FF0704203
:10056000411C8900A1F1C0410A608100A1F1C04194
:10057000C1F80421704710280AD118214FF02042F9
:100580001166402151664FF0FC319166D16610E052
:100590001821F74A116040214FF02042C2F8841020
:1005A0004FF0FC31F24A083211604FF02042C2F89D
:1005B0008C1070471820EE49203108600020090691
:1005C000C1F8A4004FF0FC30E94928310860091D4A
:1005D0000860091D08607047D0E901121143C26824
:1005E0001143026911434269114382691143C2698F
:1005F0001143026A1143426A1143826A1143C26A7B
:100600001143026B114302689200A2F1C0421160D3
:10061000816808290BD101688900A1F1C0410968EE
:1006200041F0400201688900A1F1C0410A60416BBC
:100630000968426B526841EA0211426B926841EAD2
:100640000221426B928941EA0241426B128A41EADD
:100650000251426B127D41EA0261426B9269114381
:100660000268521C9200A2F1C0421160C16AB1F549
:10067000804F1BD1816B0968826B526841EA02117D
:10068000826B926841EA0221826B128A41EA02512E
:10069000826B127D41EA0261826B926911430268AA
:1006A0009200A2F1C042C2F8041107E06FF070425C
:1006B00001688900A1F1C041C1F80421704730B53B
:1006C000002100220023446844F0080485682C437C
:1006D000C5682C4305692C43456944EA452485696E
:1006E00044EA4531C4692468C5696D6844EA052453
:1006F000C5692D8944EA0544C5692D7B44EA056234
:10070000046A2468056A6D6844EA0524056A2D892F
:1007100044EA0544056A2D7B44EA05630468102C0D
:1007200005D14FF020442166A266E36608E0904CB4
:1007300021604FF02044C4F888208D4C0C34236095
:1007400030BD016841F01001426841EA42218268EF
:1007500041EA4231864A20321160C1680968C268A4
:10076000526841EA0221C268128941EA0241C26824
:10077000127B41EA02617E4A2832116001690968F0
:100780000269526841EA02210269128941EA024182
:100790000269127B41EA0261754A2C32116041699B
:1007A00009684269526841EA02214269128941EAB4
:1007B00002414269127B41EA02614FF02042C2F8D5
:1007C000B01070470021016002214160002181606A
:1007D000C160016141618161C16101624FF4805179
:1007E0004162490081620021C16201630F21426BB5
:1007F0001160426B5160FF21426B91600F21426B8F
:10080000D160426B1161426B51610021426B916179
:100810000F21826B1160826B5160FF21826B9160AE
:100820000F21826BD160826B1161826B516100215B
:10083000826B9161704710210160002141608160ED
:10084000C160016141618161FC21C2691160C269BD
:100850005160C2699160C269D160026A1160026A26
:100860005160026A9160026AD160704700210160A4
:1008700041608160FC21C2681160C2685160C26839
:100880009160C268D16002691160026951600269B9
:1008900091600269D16042691160426951604269A8
:1008A00091604269D160704751B18200A2F1C042AB
:1008B000126842F001038200A2F1C042136009E015
:1008C0008200A2F1C04212682A4B1A408300A3F1B1
:1008D000C0431A60704799B1102808D14FF02042E8
:1008E000126E42F004024FF020431A661DE0204AC7
:1008F000126842F004024FF02043C3F8802014E055
:10090000102809D14FF02042126E1A4BDB1E1A40FC
:100910004FF020431A6608E0154A1268154BDB1E9B
:100920001A404FF02043C3F88020704748B1104967
:100930002031096841F004014FF02042C2F8A010B4
:1009400009E00B49203109680A4AD21E11404FF0D4
:100950002042C2F8A0107047B9B110280CD14FF056
:100960002042126E42F040024FF020431A661FE010
:10097000800000A0FEFF0F00724A126842F04002A1
:100980004FF02043C3F8802012E0102808D14FF028
:100990002042126E6C4B1A404FF020431A6607E05B
:1009A000684A1268684B1A404FF02043C3F8802011
:1009B000704701460020102903D14FF02042506FAC
:1009C00002E0604A14321068704710B5F2B1102886
:1009D00007D14FF020435B6E0B434FF0204463661A
:1009E00032E0B0F5807F08D1564B1B1D1B680B43CE
:1009F0004FF02044C4F8843026E0524B24331B6867
:100A00000B434FF02044C4F8A4301DE0102807D158
:100A10004FF020435B6E8B434FF02044636613E03E
:100A2000B0F5807F08D1474B1B1D1B688B434FF0EF
:100A30002044C4F8843007E0424B24331B688B43C6
:100A40004FF02044C4F8A43010BD10B50246002079
:100A50000023102A03D14FF02044636E09E0B2F561
:100A6000807F03D1374C241D236802E0354C2434A9
:100A7000236803EA01040CB1012000E0002010BD4E
:100A8000102807D14FF02042526E8A434FF0204386
:100A90005A6613E0B0F5807F08D12A4A121D126809
:100AA0008A434FF02043C3F8842007E0254A2432CC
:100AB00012688A434FF02043C3F8A420704770B5F2
:100AC00002460020002300240025102A03D14FF005
:100AD0002046736E09E0B2F5807F03D1194E361DB2
:100AE000336802E0174E2436336803EA010403EA50
:100AF000D10514B10DB1012000E0002070BD102817
:100B000008D14FF02042526E22EAD1024FF020432A
:100B10005A6615E0B0F5807F09D10A4A121D1268A5
:100B200022EAD1024FF02043C3F8842008E0054AAE
:100B30002432126822EAD1024FF02043C3F8A420E5
:100B400070470000800000A0BFFF0F0010B50446F2
:100B5000CC48844208D10121042000F02DFB002163
:100B6000042000F029FB46E0C748844208D1012157
:100B7000082000F021FB0021082000F01DFB3AE0D6
:100B8000C248844208D10121102000F015FB002149
:100B9000102000F011FB2EE0BD48844208D1012155
:100BA000202000F009FB0021202000F005FB22E0BE
:100BB000B848844208D10121402000F0FDFA00210C
:100BC000402000F0F9FA16E0B348844208D1012130
:100BD000802000F0F1FA0021802000F0EDFA0AE018
:100BE000AE48844207D10121801500F0E5FA0021CA
:100BF000A01500F0E1FA10BD10B50121084600F083
:100C0000DBFA0021012000F0D7FA10BD2DE9F041F8
:100C1000024600250026002000230024002791F82A
:100C200003C00CF00F0591F803C00CF0100CBCF1E0
:100C3000000F03D091F802C04CEA050591F800C0FE
:100C4000BCF1000F31D0146800202BE04FF0010CF4
:100C50000CFA00F3B1F800C00CEA03069E4220D162
:100C600083004FF00F0C0CFA03F7BC4305FA03FCAA
:100C70004CEA040491F803C0BCF1280F06D14FF0F0
:100C8000010C0CFA00FCC2F814C00AE091F803C091
:100C9000BCF1480F05D14FF0010C0CFA00FCC2F872
:100CA00010C0401C0828D1D31460B1F800C0BCF1BA
:100CB000FF0F34DD546800202EE000F1080C4FF0E7
:100CC000010808FA0CF3B1F800C00CEA03069E42D2
:100CD00021D183004FF00F0C0CFA03F7BC4305FA47
:100CE00003FC4CEA040491F803C0BCF1280F05D1C1
:100CF00000F1080C08FA0CF8C2F8148091F803C04F
:100D0000BCF1480F07D100F1080C4FF0010808FAB8
:100D10000CF8C2F81080401C0828CED35460BDE8FF
:100D2000F0814FF6FF710180022181700421C170B2
:100D300070470246002093680B400BB1012000E091
:100D4000002070470146886880B270470246002044
:100D5000D3680B400BB1012000E000207047014632
:100D6000C86880B2704701617047416170470AB13D
:100D7000016100E041617047C16070474FF480320B
:100D80000A43826181618261826982697047024699
:100D90000020434B18684FF68073184040EA021059
:100DA00008433F4B186070473E49C8617047F0B533
:100DB0000A46002300240021002500F00046B6F179
:100DC000004F02D1364EF16901E0354E7168C0F333
:100DD000034583B200F44016B6F5401F08D121F058
:100DE00070612F4E766826F070662D4F7E6012E09F
:100DF00000F48016B6F5801F06D1032606FA05F426
:100E0000A14341F0706106E0460D360103FA06F693
:100E1000B14341F0706122B1460D360103FA06F686
:100E2000314300F00046B6F1004F02D11C4EF16193
:100E300001E01B4E7160F0BD30B500228B071C0F26
:100E40000F2303FA04F2164B08338C1053F82430A6
:100E50009343134C08348D1044F8253023468C10EE
:100E600053F824308C07240F00FA04F423430C4C6D
:100E700008348D1044F8253030BD0A49DC31086053
:100E80007047000000080140000C014000100140C4
:100E90000014014000180140001C014000200140E6
:100EA0000000014000002042DF48006840F00100DF
:100EB000DD49086008464068DC490840DA49486076
:100EC00008460068DA490840D749086008460068C3
:100ED00020F4802008600846406820F4FE00486046
:100EE0004FF41F0088607047CF49096821F48031B2
:100EF000CD4A11601146096821F480211160B0F5D6
:100F0000803F03D0B0F5802F0ED106E0C6490968B6
:100F100041F48031C44A116007E0C349096841F4D3
:100F2000A021C14A116000E000BF00BF704710B5AA
:100F300001460022002300204A11012A02D1BA4CA6
:100F4000236806E0022A02D1B74C236A01E0B64CBE
:100F5000636A01F01F02012494401C400CB101207F
:100F600000E0002010BD38B50020009000240025CE
:100F700000BF3120FFF7DBFF05460098401C0090C2
:100F80000098B0F5A06F01D0002DF2D03120FFF70E
:100F9000CEFF08B1012400E00024204638BD014600
:100FA0000020A14A106820F0F80040EAC10010605B
:100FB0007047A04908607047024600209A4B586865
:100FC00020F47C1042EA01031843974B58607047A5
:100FD00098490866704701460020934A506820F0FF
:100FE00003000843506070478F48406800F00C00D1
:100FF0007047014600208C4A506820F0F0000843FA
:101000005060704701460020874A506820F4E06035
:1010100008435060704701460020834A506820F41E
:10102000605040EAC1005060704729B17E4A527A50
:1010300002437D4B5A7204E07B4A527A82437A4BD8
:101040005A7270477B49D8310860704701460020CA
:10105000754A506820F440400843506070470021B2
:10106000714A20321170704A82F82010012802D093
:1010700004280AD104E001216B4A2032117005E0F6
:101080000521694A2032117000E000BF00BF70479F
:101090006949086070476449096A0143624A1162FC
:1010A0007047654944390860704730B50021002217
:1010B000002400235C4D6D6805F00C0121B104296A
:1010C00005D0082923D105E05C4D056022E05B4D89
:1010D00005601FE0544D6D6805F47012524D6D6847
:1010E00005F48034022505EB92421CB9544D55435A
:1010F00005600BE04C4D6D6805F400351DB1504D99
:101100005543056002E04D4D5543056002E04B4DEF
:10111000056000BF00BF444D6D6805F0F00109098E
:10112000484D6B5C0568DD4045603F4D6D6805F4DA
:10113000E061090A434D6B5C4568DD4085603A4DCE
:101140006D6805F46051C90A3E4D6B5C4568DD4031
:10115000C560354D6D6805F44041890B3A4D6B5CB7
:10116000C568B5FBF3F5056130BD29B12E4A52695A
:1011700002432D4B5A6104E02B4A526982432A4BA9
:101180005A61704729B1284A92690243264B9A61F5
:1011900004E0254A92698243234B9A61704729B142
:1011A000214AD2690243204BDA6104E01E4AD26927
:1011B00082431D4BDA61704729B11B4AD268024352
:1011C000194BDA6004E0184AD2688243164BDA60A1
:1011D000704729B1144A12690243134B1A6104E0A3
:1011E000114A12698243104B1A6170471249403903
:1011F000086070470F49C86470470B49C871704751
:101200000948406A40F080700749486270470146CB
:101210000020054A92680A400AB1012000E000203F
:101220007047014988727047001002400000FFF8C3
:10123000FFFFF6FE000042428004424200127A00A4
:1012400000093D00140000202400002010B50446D1
:10125000FB48844209D101218803FFF7ADFF00213B
:101260004FF48040FFF7A8FF32E0F648844209D1EE
:1012700001214804FFF7ADFF00214FF40030FFF7D4
:10128000A8FF25E0F048844209D101218804FFF736
:10129000A0FF00214FF48020FFF79BFF18E0EB48F0
:1012A000844209D10121C804FFF793FF00214FF4C4
:1012B0000020FFF78EFF0BE0E548844208D10121B2
:1012C0000805FFF786FF00214FF48010FFF781FF2C
:1012D00010BD2DE9F04786B005460E460024A24613
:1012E00000BFA1460027B08900B100BF2F462C8A5D
:1012F0004CF6FF700440F08804432C82AC894EF613
:10130000F3100440B08831890843718908430443CD
:10131000AC81AC8A4FF6FF400440B0890443AC82F4
:1013200001A8FFF7C2FEC648874202D1DDF810A02F
:1013300001E0DDF80CA0A88900F4004040B10AEB00
:10134000CA0000EB0A1031684900B0FBF1F807E071
:101350000AEBCA0000EB0A1031688900B0FBF1F813
:101360006420B8FBF0F004012009642101FB10891E
:10137000A88900F4004040B1322000EBC900B0FB66
:10138000F1F000F00700044308E0322000EB091000
:101390006421B0FBF1F000F00F0004432C8106B093
:1013A000BDE8F0874FF41651016000218180C180B3
:1013B00001810C21418100218181704710B50246D5
:1013C0000020108A4FF2FF0318400B884C882343FB
:1013D0008C882343CC8823431843108210BD0021FE
:1013E000018041808180C180704721B1828942F4AF
:1013F0000052828104E082894DF6FF731A40828197
:101400007047F0B50346002400260025002040F672
:101410006A17B94200D100BF1846C1F3421401F067
:101420001F06012707FA06F5012C01D10C3004E054
:10143000022C01D1103000E014301AB107682F439C
:10144000076002E00768AF430760F0BD1AB1838A06
:101450000B43838202E0838A8B4383827047028A34
:101460004FF6F0731A400282028A0A4302827047E2
:1014700082894FF2FF731A40828182890A438281F6
:10148000704721B1828942F00202828104E08289A0
:101490004FF6FD731A4082817047028A4FF6DF7360
:1014A0001A400282028A0A430282704721B1028AEC
:1014B00042F48042028204E0028A4BF6FF731A4033
:1014C00002827047C1F30802828070470146888813
:1014D000C0F308007047818941F0010181817047A4
:1014E000028BD2B20283028B42EA0122028370474E
:1014F000028B02F47F420283028B0A43028370470D
:1015000021B1828A42F02002828204E0828A4FF670
:10151000DF731A408282704721B1828A42F0100242
:10152000828204E0828A4FF6EF731A40828270470B
:1015300021B1828A42F00802828204E0828A4FF658
:10154000F7731A408282704721B1828942F40042C7
:10155000828103E08289C2F30E028281704721B149
:10156000828A42F40062828204E0828A4FF2FF7330
:101570001A4082827047828A4FF6FB731A40828239
:10158000828A0A438282704721B1828A42F0020233
:10159000828204E0828A4FF6FD731A40828270478D
:1015A00002460020B1F5007F00D100BF13880B4038
:1015B0000BB1012000E00020704701F40072B2F589
:1015C000007F00D100BFCA430280704770B5024659
:1015D000002400230025002040F66A16B14200D105
:1015E00000BFC1F3421501F01F03012606FA03F301
:1015F000012D02D19689334006E0022D02D1168AD0
:10160000334001E0968A33400C12012606FA04F4B6
:101610001688344013B10CB1012000E0002070BDE9
:1016200010B50022002340F66A14A14200D100BF89
:101630000A1201249440A3B2DC43048010BD0000D0
:10164000003801400044004000480040004C004089
:10165000005000408CB044E003A9522000F086FB0B
:101660000446262804D003A9522000F07FFB04463C
:10167000262C36D103A800F0A4FB262831D19DF8F2
:101680000F009DF80E10CDE900109DF80D309DF86B
:101690000C202DA104A802F06BFA04A933A002F0DB
:1016A00057FA3448007838B9002040F20F13F0227E
:1016B0000146009000F0FFFF1F2000902D480078A9
:1016C0000101002304AA184601F0C0F92948007856
:1016D000401C2849087008460078112801D10020D4
:1016E0000870B9E708B500F07BF800F0DBF800F00F
:1016F00087F901F055FF20A002F02AFA00204FF4EC
:10170000A073F0220146009000F0D5FF4FF4FC607A
:101710000223F0224FF488710090002000F0CBFFEC
:101720004FF47840002318A24FF48C7100901846B3
:1017300001F08CF900F019FA412000F054FA01E0B0
:10174000FFF788FFFCE7000054686520436172647E
:101750002049442069733A202530325825303258C8
:1017600025303258253032580000000025730D0A0C
:10177000000000002800002057462D524335323229
:1017800020546573740A0000506C656173652070A5
:101790007574207468652049432063617264206F0A
:1017A0006E2057462D524335323220616E74656E7D
:1017B0006E612061726561202E2E2E00704700BF81
:1017C000FEE700BFFEE700BFFEE700BFFEE7704791
:1017D0007047704710B500F052F810BD7047000018
:1017E00030B52B4800682B4AB0FBF2F1B1F1807F95
:1017F00001D301201DE021F07F40401E4FF0E02288
:10180000506150170F22002807DA13071D0E224BD4
:1018100000F00F04241F1D5503E013071C0E1F4B7F
:101820001C5400BF00204FF0E0229061072010619F
:10183000002008B100BFFEE74FF0E020006920F073
:1018400001004FF0E021086130BD01B51449009856
:1018500008604FF0E020006940F001004FF0E02107
:10186000086100BF0E4800680028FBD14FF0E0205F
:10187000006920F001004FF0E021086108BD084830
:10188000006820B106480068401E0549086070479E
:101890000000002040420F0018ED00E000E400E0EE
:1018A0002C00002000B585B0012144F20400FFF7B0
:1018B00069FC4FF40070ADF8100018208DF813008B
:1018C00003208DF8120004A92148FFF79FF94FF477
:1018D0008060ADF8100004208DF8130004A91C48A6
:1018E000FFF794F94FF4E13000900020ADF80400C8
:1018F000ADF80600ADF80800ADF80C000C20ADF80E
:101900000A0069461348FFF7E4FC01211148FFF77C
:101910006CFD05B000BD70B504460D46E1B20D4842
:10192000FFF7D0FD00BF80210A48FFF739FE0028ED
:10193000F9D0204670BD10B5044600BF20210548EF
:10194000FFF72EFE0028F9D00248FFF7BFFD10BDBB
:10195000000801400038014008B501210420FFF7CC
:1019600011FC1020ADF8000003208DF802001020BB
:101970008DF8030069462848FFF748F90121042043
:10198000FFF700FC2020ADF8000003208DF80200D6
:1019900010208DF8030069461F48FFF737F9012131
:1019A0000420FFF7EFFB8020ADF8000003208DF846
:1019B000020010208DF8030069461748FFF726F94A
:1019C00001210420FFF7DEFB4020ADF800000420D9
:1019D0008DF8030069461048FFF718F90121082027
:1019E000FFF7D0FB0120ADF8000003208DF80200C6
:1019F00010208DF8030069460848FFF707F908BD75
:101A000010B5FFF7A9FF01210448FFF7ACF9102139
:101A10000148FFF7A8F910BD00080140000C014083
:101A200070B50446002520E004F0800020B180213C
:101A3000FE48FFF798F903E08021FC48FFF795F98D
:101A4000C820FFF702FF2021F848FFF78EF9C820D1
:101A5000FFF7FBFE2021F548FFF785F9C820FFF7C7
:101A6000F4FE6006040E681CC5B2082DDCDB70BDF8
:101A700070B500251CE06006040E2021EB48FFF73E
:101A800074F9C820FFF7E1FE4021E848FFF751F95B
:101A9000012801D144F00104C820FFF7D6FE20211F
:101AA000E248FFF760F9C820FFF7CFFE681CC5B217
:101AB000082DE0DB204670BD70B504467E2000EAAC
:101AC000440040F080051021D848FFF74EF9284621
:101AD000FFF7A6FFFFF7CCFF06461021D348FFF71C
:101AE00042F9304670BD70B504460D467E2000EACE
:101AF00044061021CD48FFF738F93046FFF790FF34
:101B00002846FFF78DFF1021C848FFF72CF970BD5C
:101B100070B505460C462846FFF7CEFF064646EA56
:101B200004012846FFF7DFFF70BD70B505460C467F
:101B30002846FFF7C1FF064626EA04012846FFF7BC
:101B4000D2FF70BD10B51420FFF7B6FF044604F0B5
:101B5000030018B903211420FFF7DAFF10BD10B5F8
:101B600003211420FFF7E1FF10BD10B50121B0489B
:101B7000FFF7F9F80120FFF768FE0121AC48FFF7F5
:101B8000F4F80120FFF761FE0121A948FFF7EBF807
:101B90000120FFF75AFE0F210120FFF7A4FF00BF2D
:101BA0000120FFF789FF00F010000028F8D1012084
:101BB000FFF74BFE3D211120FFF795FF1E212D2041
:101BC000FFF791FF00212C20FFF78DFF8D212A20A8
:101BD000FFF789FF3E212B20FFF785FF40211520CD
:101BE000FFF781FF10BD10B50446412C24D1082118
:101BF0000846FFF79AFF3D211120FFF774FF862169
:101C00001720FFF770FF7F212620FFF76CFF1E21B2
:101C10002D20FFF768FF00212C20FFF764FF8D21A6
:101C20002A20FFF760FF3E212B20FFF75CFF0220F8
:101C3000FFF70BFEFFF786FF10BD2DE9FE4F0646AE
:101C4000884691469A46DDF830B0BB2002900020CD
:101C5000019000900C2E06D00E2E09D1122001907A
:101C60001020009005E0772001903020009000E0E7
:101C700000BF00BF019840F080010220FFF733FF52
:101C800080210420FFF751FF00210120FFF72BFFE7
:101C900080210A20FFF73CFF002505E018F8051019
:101CA0000920FFF720FF6D1C4D45F7D33146012079
:101CB000FFF719FF0C2E03D180210D20FFF728FF1D
:101CC0004FF47A7500BF0420FFF7F6FE04466D1E40
:101CD00035B104F0010018B9009820400028F2D076
:101CE00080210D20FFF721FF95B30620FFF7E4FECA
:101CF00000F01B0068BB262002900198204000F0F5
:101D0000010008B1CC2002900C2E24D10A20FFF74C
:101D1000D3FE04460C20FFF7CFFE00F007072FB1DB
:101D2000601E07EBC000CBF8000002E0E000CBF83B
:101D3000000004B90124122C00DD1224002505E066
:101D40000920FFF7B9FE0AF805006D1CA542F7D37C
:101D500001E0BB20029080210C20FFF7D9FE00217A
:101D60000120FFF7C0FE0298BDE8FE8F70B588B075
:101D700005460C4608210846FFF7D7FE07210D202F
:101D8000FFF7B1FE03211420FFF7C2FE8DF80C50BF
:101D900002A803AB012203A900900C20FFF74DFF1E
:101DA0000646262E09D10298102806D19DF80C006F
:101DB00020709DF80D00607000E0BB26304608B032
:101DC00070BDF0B587B00546002708210846FFF72B
:101DD000ACFE00210D20FFF786FE80210E20FFF7CC
:101DE000A4FE93208DF8080020208DF8090001A89A
:101DF00002AB022202A900900C20FFF71EFF06464C
:101E0000262E10D1002407E002A8005D285502A864
:101E1000005D4740601CC4B2042CF5DB02A8005DE5
:101E2000B84200D0BB2680210E2003E0000801400C
:101E3000000C0140FFF76CFE304607B0F0BD2DE905
:101E4000F04107468846154604210520FFF76DFE40
:101E500000210120FFF747FE80210A20FFF758FEEE
:101E6000002405E0395D0920FFF73DFE601CC4B287
:101E70004445F7DB03210120FFF735FEFF2400BFB7
:101E80000520FFF719FE0646601EC4B21CB106F01D
:101E900004000028F4D02220FFF70EFE2870212035
:101EA000FFF70AFE6870BDE8F08170B588B005469E
:101EB00093208DF80C0070208DF80D0000208DF817
:101EC000120000240BE0295D03AAA01C11549DF808
:101ED0001200295D48408DF81200601CC4B2042C29
:101EE000F1DB0DF11302072103A8FFF7A8FF08217A
:101EF0000846FFF71AFE02A803AB092203A90090C7
:101F00000C20FFF79AFE0646262E03D102981828C9
:101F100000D100E0BB26304608B070BD2DE9F0438B
:101F200087B006460F46904699468DF808608DF8B2
:101F30000970002406E018F8041002AAA01C11542D
:101F4000601CC4B2062CF6DB002407E019F804106C
:101F500002AA04F108001154601CC4B2062CF5DB7F
:101F600001A802AB0C2202A900900E20FFF765FE2B
:101F70000546262D05D10820FFF79EFD00F008003C
:101F800000B9BB25284607B0BDE8F083F0B587B09F
:101F900006460F46A0208DF808008DF809600DF167
:101FA0000A02022102A8FFF74AFF01A802AB04229D
:101FB00002A900900C20FFF740FE0546262D08D10F
:101FC0000198042805D19DF8080000F00F000A28A8
:101FD00000D0BB25262D22D1002404E0385D02A9C3
:101FE0000855601CC4B2102CF8DB06AA102102A808
:101FF000FFF725FF01A802AB122202A900900C20D6
:10200000FFF71BFE0546262D08D10198042805D1AF
:102010009DF8080000F00F000A2800D0BB252846D4
:1020200007B0F0BDF0B587B005460E4630208DF8FC
:1020300008008DF809500DF10A02022102A8FFF7ED
:10204000FEFE01A802AB042202A900900C20FFF7BB
:10205000F4FD0746262F0CD10198902809D10024C1
:1020600004E002A8005D3055601CC4B2102CF8DBFF
:1020700000E0BB27384607B0F0BD00B587B0502060
:102080008DF8080000208DF809000DF10A020221E8
:1020900002A8FFF7D4FE01A802AB042202A9009017
:1020A0000C20FFF7CAFD262007B000BDF8B5044696
:1020B0000D4617461E460020009069465220FFF745
:1020C00055FE6846FFF77DFE2046FFF7EEFE2346ED
:1020D0002A4610216020FFF721FF27B1314610204A
:1020E000FFF7A0FF03E031461020FFF74FFFFFF797
:1020F000C4FFF8BD01B502E00098401E00900098B2
:102100000028F9D108BD08B501210846FFF73AF8C3
:1021100001216020FFF736F803208DF80200182017
:102120008DF803004CF20370ADF800006946FE48DC
:10213000FEF76CFD4FF68070ADF800006946FB4875
:10214000FEF764FD03208DF8020018208DF80300CF
:102150001020ADF800006946F348FEF757FD202037
:10216000ADF800006946F048FEF750FD012120203F
:10217000FFF708F88020ADF800006946EA48FEF74E
:1021800045FD01212020FEF7FDFF4FF40060ADF872
:1021900000006946E448FEF739FD10208DF8030081
:1021A00003208DF8020001214020FEF7EBFF022002
:1021B000ADF800006946DD48FEF728FD10208DF8D7
:1021C000030003208DF8020001212020FEF7DAFF32
:1021D0004FF48050ADF800006946D348FEF716FD75
:1021E00008BD00B597B001210802FEF7BEFF02202E
:1021F000019000200290052003900020049005909B
:1022000006904FF080500790002008900990082019
:102210000A9010200B9000200C900E900F901090C0
:102220004FF480501190002012901390149001A848
:102230001590169008A8FEF7CFF901210020FEF7AF
:1022400033FB17B000BD10B5CF2001F077FC0020A4
:1022500001F078FC812001F075FC302001F072FC67
:10226000ED2001F06BFC642001F06CFC032001F018
:1022700069FC122001F066FC812001F063FCE8207B
:1022800001F05CFC852001F05DFC102001F05AFC9F
:10229000782001F057FCCB2001F050FC392001F0F0
:1022A00051FC2C2001F04EFC002001F04BFC3420AE
:1022B00001F048FC022001F045FCF72001F03EFC53
:1022C000202001F03FFCEA2001F038FC002001F062
:1022D00039FC002001F036FCB12001F02FFC002079
:1022E00001F030FC1B2001F02DFCB62001F026FC93
:1022F0000A2001F027FCA22001F024FCC02001F0FC
:102300001DFC352001F01EFCC12001F017FC11203E
:1023100001F018FCC52001F011FC452001F012FC71
:10232000452001F00FFCC72001F008FCA22001F0BD
:1023300009FCF22001F002FC002001F003FC262041
:1023400001F0FCFB012001F0FDFBE02001F0F6FBB9
:102350000F2001F0F7FB262001F0F4FB242001F010
:10236000F1FB0B2001F0EEFB0E2001F0EBFB09204E
:1023700001F0E8FB542001F0E5FBA82001F0E2FBAE
:10238000462001F0DFFB0C2001F0DCFB172001F000
:10239000D9FB092001F0D6FB0F2001F0D3FB072069
:1023A00001F0D0FB002001F0CDFBE12001F0C6FBE5
:1023B000002001F0C7FB192001F0C4FB1B2001F035
:1023C000C1FB042001F0BEFB102001F0BBFB072085
:1023D00001F0B8FB2A2001F0B5FB472001F0B2FB69
:1023E000392001F0AFFB032001F0ACFB062001F027
:1023F000A9FB062001F0A6FB302001F0A3FB38204A
:1024000001F0A0FB0F2001F09DFB362001F096FBB0
:10241000C82001F097FB2A2001F090FB002001F07A
:1024200091FB002001F08EFB002001F08BFBEF20E0
:1024300001F088FB2B2001F081FB002001F082FBE2
:10244000002001F07FFB012001F07CFB3F2001F028
:1024500079FB3A2001F072FB552001F073FB11204B
:1024600001F06CFB3248FFF745FE292001F066FBC6
:1024700010BD10B502212D48FEF777FC2C48FFF760
:1024800039FE02212948FEF76EFC2948FFF732FE8B
:1024900010BD10B504462CB14FF480512248FEF710
:1024A00064FC04E04FF480511F48FEF75CFC10BD53
:1024B00010B5FFF728FEFFF794FE0120FFF7E9FFB4
:1024C000FFF7D7FFFFF7BFFE10BD10B50446012C84
:1024D00006D0022C31D0032C54D0042C2CD176E021
:1024E000362001F02BFBC82001F02CFB2A2001F044
:1024F00025FB002001F026FB002001F023FB00203B
:1025000001F020FBEF2001F01DFB2B2001F016FB5A
:10251000002001F017FB002001F014FB012001F066
:1025200011FB3F2006E000000014014000180140AC
:10253000FCBF020001F006FB6EE0362001F0FEFA5F
:10254000682001F0FFFA2A2001F0F8FA002001F0DB
:10255000F9FA002001F0F6FA012001F0F3FA3F2029
:1025600001F0F0FA2B2001F0E9FA002001F0EAFA7C
:10257000002001F0E7FA002001F0E4FAEF2001F07A
:10258000E1FA49E0362001F0D9FA282001F0DAFA20
:102590002A2001F0D3FA002001F0D4FA002001F043
:1025A000D1FA012001F0CEFA3F2001F0CBFA2B2026
:1025B00001F0C4FA002001F0C5FA002001F0C2FACF
:1025C000002001F0BFFAEF2001F0BCFA24E0362031
:1025D00001F0B4FA482001F0B5FA2A2001F0AEFA71
:1025E000002001F0AFFA002001F0ACFA002001F069
:1025F000A9FAEF2001F0A6FA2B2001F09FFA0020A3
:1026000001F0A0FA002001F09DFA012001F09AFAF1
:102610003F2001F097FA00BF00BF2C2001F08EFA96
:1026200010BD2DE9F04104460D4616461F462A20EE
:1026300001F084FA201201F085FAE0B201F082FA8A
:10264000A119491EC1F30F2001F07CFAA119491EFE
:10265000C8B201F077FA2B2001F070FA281201F0CD
:1026600071FAE8B201F06EFAE919491EC1F30F20C0
:1026700001F068FAE919491EC8B201F063FABDE831
:10268000F08170B504460D4601231A4629462046BE
:10269000FFF7C7FF70BD70B504460D4600262C201D
:1026A00001F04CFA00BF03E0284601F04BFA761C1B
:1026B000A642F9D370BD2DE9F04106460F461446F7
:1026C0001D46DDF818802B46224639463046FFF776
:1026D000A8FF04FB05F04146FFF7DDFFBDE8F081F0
:1026E00070B506460C461546F02E0ADAB4F5A07F02
:1026F00007DA21463046FFF7C4FF29460120FFF7DD
:10270000CAFF70BD70B50024002500262E2001F000
:1027100015FA01F00DFA044601F00AFA044601F038
:1027200007FA064601F004FA0546E012C002A912B3
:1027300040EA411040EAE62070BD70B504460D46FF
:1027400029462046FFF79DFFFFF7DCFF064630468F
:1027500070BD2DE9FF4F85B081468A464FF0000BD2
:10276000002001900798A0EB09050898A0EB0A0645
:10277000CDF80C90CDF808A0002D01DD012705E073
:102780000DB9002702E04FF0FF376D42002E02DD49
:102790004FF0010806E016B94FF0000802E04FF0D4
:1027A000FF387642B54201DD2C4600E03446002079
:1027B00004901EE0129ADDE90210FFF791FFAB448E
:1027C000019830440190A34505DDABEB040B039861
:1027D000384480B203900198A04206DD0198001BA6
:1027E00001900298404480B202900498401C80B24C
:1027F0000490611C04988842DCDD09B0BDE8F08FCC
:102800002DE9F84304460D4616461F46DDE90889C2
:10281000B9F1000F08D03B46324629462046CDF894
:102820000080FFF748FF2FE0A019401E82B22B4620
:1028300029462046CDF80080FFF78BFFE819401E9F
:1028400083B2A019401E82B2E819401E81B2204610
:10285000CDF80080FFF77DFFE819401E83B22246C5
:1028600029462046CDF80080FFF773FFE919491E7D
:102870008BB2A119491E8AB2A119491E88B22946F4
:10288000CDF80080FFF765FFBDE8F8832DE9F05F24
:1028900005460E4691469B4600240FFA89F7032011
:1028A000A0EB49000FFA80FA97E00A98002848D078
:1028B000A04643E006EB080291B22A1990B25A46AC
:1028C000FFF70EFF06EB080291B22A1B90B25A46A0
:1028D000FFF706FF321991B2A5EB080290B25A46F3
:1028E000FFF7FEFE321B91B2A5EB080290B25A46EA
:1028F000FFF7F6FEA6EB080291B22A1B90B25A46E9
:10290000FFF7EEFEA6EB080291B22A1990B25A46E2
:10291000FFF7E6FE321B91B205EB080290B25A4671
:10292000FFF7DEFE321991B205EB080290B25A466B
:10293000FFF7D6FE08F101000FFA80F8B845B9DDBF
:1029400037E0F21991B22A1990B25A46FFF7C8FE41
:10295000F21991B22A1B90B25A46FFF7C1FE321902
:1029600091B2EA1B90B25A46FFF7BAFE321B91B2FF
:10297000EA1B90B25A46FFF7B3FEF21B91B22A1B34
:1029800090B25A46FFF7ACFEF21B91B22A1990B2F0
:102990005A46FFF7A5FE321B91B2EA1990B25A4689
:1029A000FFF79EFE321991B2EA1990B25A46FFF72C
:1029B00097FE601C04B2BAF1000F05DAA000801D7A
:1029C00050440FFA80FA07E0E01B80000A305044C0
:1029D0000FFA80FA781E07B200BFBC427FF765AFDE
:1029E000BDE8F09F2DE9F05F81468A4615461E46F8
:1029F000A5F1200000F0FF0B1023082251464846A5
:102A0000FFF70FFE2C2001F099F800241AE07F4810
:102A100000EB0B10075D4FF000080EE007F001001F
:102A200018B10A9801F08EF802E0304601F08AF8F9
:102A30007F1008F1010000F0FF08B8F1080FEDDB8E
:102A4000601CC4B2102CE2DBBDE8F09F2DE9F84316
:102A500005460E4614461F46DDF820801AE028463B
:102A60000830F02803DD002506F1100086B230465C
:102A70001030B0F5A07F01DD00250026CDF80080E4
:102A800022783B4631462846FFF7ACFF641C05F12F
:102A9000080085B220780028E1D1BDE8F8832DE94F
:102AA000F04F89B08046894693461E46DDF848A01F
:102AB00010231A4649464046FFF7B3FD2C2001F08B
:102AC0003DF8002422E001A810F814504FF6FF70E2
:102AD00000EA0525012000EB440001A9085C05433C
:102AE00000270FE005F4004018B1504601F02AF825
:102AF00002E0304601F026F84FF6FF7000EA450587
:102B0000781CC7B2102FEDDB601CC4B2102CDADBCE
:102B100009B0BDE8F08F2DE9F84305460E4614468E
:102B20009846DDF820901FE028461030F02803DD9D
:102B3000002506F1100086B230461030B0F5A07FB7
:102B400001DD002500262788380200EB272087B208
:102B500043463A4631462846CDF80090FFF79FFF9E
:102B600005F1100085B2A41C20780028DCD1BDE856
:102B7000F8832DE9F84305460E4614469946DDF8DC
:102B800020803EE020787E281BDC28460830F02894
:102B900003DD002506F1100086B230461030B0F596
:102BA000A07F01DD00250026CDF8008022784B466D
:102BB00031462846FFF716FF05F1080085B2641C70
:102BC0001FE028461030F02803DD002506F1100034
:102BD00086B230461030B0F5A07F01DD002500261A
:102BE0002788380200EB272087B24B463A46314609
:102BF0002846CDF80080FFF752FF05F1100085B29E
:102C0000A41C20780028BDD1BDE8F883244000082A
:102C100008B54FF4C060FDF797FB0A208DF800005F
:102C200000208DF801008DF8020001208DF80300CE
:102C30006846FDF78EFB08BD0EB501214120FEF769
:102C4000A1FAFFF7E5FF1020ADF8080048208DF845
:102C50000B0002A9FE48FDF7D9FF04210846FEF744
:102C6000EBF81020009000208DF804000C208DF867
:102C7000050001208DF806006846FDF7E1FB0EBD5A
:102C800008B501216020FEF77DFA0120ADF80000B3
:102C90008DF8020010208DF803006946EC48FDF71E
:102CA000B5FF0420ADF800006946E948FDF7AEFF26
:102CB0000820ADF8000001208DF8020048208DF8B2
:102CC00003006946E248FDF7A1FF4FF40050ADF85C
:102CD000000001208DF8020010208DF803006946E5
:102CE000DC48FDF793FF4FF40051DA48FEF73DF85A
:102CF00008BD10B5FFF7C4FFFFF79EFF10BD01B57B
:102D0000002007E00C2100BF0A00A1F10103D9B2A5
:102D1000FAD1401C00998842F4D308BD70B505462D
:102D20000421CB48FEF721F80121C948FEF71DF820
:102D300000241FE0C4F1070045FA00F000F0010094
:102D400020B10421C248FEF70EF803E00421C04878
:102D5000FEF70BF80520FFF7D2FF0121BC48FEF774
:102D600002F80520FFF7CBFF0121B948FDF7FDFF71
:102D7000601CC4B2082CDDDB70BD70B500250421D9
:102D8000B348FDF7F2FF0121B148FDF7ECFF002445
:102D900014E00121AE48FDF7E8FF0821AC48FDF73B
:102DA000C8FF0646C4F10B0006FA00F0284385B2BE
:102DB0000121A748FDF7D7FF601CC4B20C2CE8DB4B
:102DC000284670BD10B504462046FFF7A7FFFFF761
:102DD000D4FF10BD2DE9F04104460D469020FFF7C9
:102DE000F1FF06B20120FFF78AFFD020FFF7EAFFCC
:102DF00007B226802F80BDE8F0812DE9F0478CB026
:102E0000064600252821684600F0D7FB00BF0AA926
:102E10000BA8FFF7DFFFBDF92C002DF81500BDF959
:102E2000281005A820F81510681CC5B21021884884
:102E3000FDF77FFF08B90A2DE9DB10218448FDF773
:102E400078FF10B10020844908700A2D7BD1BDF9AC
:102E50000070B846BDF91490CA4601240EE03DF951
:102E60001400B84202DA3DF9147005E03DF914008F
:102E7000404501DD3DF91480601CC4B20A2CEEDB34
:102E8000012412E005A830F91400484503DA05A82A
:102E900030F9149007E005A830F91400504502DD20
:102EA00005A830F914A0601CC4B20A2CEADBBDF9F5
:102EB0000000BDF902100844BDF904100844BDF932
:102EC00006100844BDF908100844BDF90A1008446A
:102ED000BDF90C100844BDF90E100844BDF91010DE
:102EE0000844BDF912100844C01BA0EB0800C0F351
:102EF000CF003080BDF91410BDF916000144BDF9B2
:102F000018000144BDF91A000144BDF91C00014438
:102F1000BDF91E000144BDF920000144BDF92200A5
:102F20000144BDF924000144BDF926000844A0EB8A
:102F30000900A0EB0A00C0F3CF00708001200CB0A4
:102F4000BDE8F087FFE70020F9E72DE9F0470546E7
:102F50000C4616464FF0010921882289891AE38818
:102F600062899A1A5143A2882389D31A6788628991
:102F7000BA1A03FB121000F0BAFCC6E90C010022D9
:102F80001346D6E90C71384600F0E8FC02D14FF048
:102F9000000990E029882A89891AE38862899A1AA7
:102FA0005143AA882B89D31A67886289BA1A03FB0E
:102FB000121000F09CFCC6E9000121882289891AC0
:102FC000AA882B89D21A51432A88D21AA388278922
:102FD000DB1B02FB131000F08AFCC6E90201218909
:102FE000AA885143A2882B8902FB1311628851439E
:102FF00022885A4323892F8803FB1723E28803FB87
:103000000212A18879432388AF8803FB17136189D3
:1030100003FB012000F06BFCC6E904016A886989A2
:10302000511AE38862899A1A5143EB886A899B1A7C
:1030300067886289BA1A03FB121000F058FCC6E9CF
:10304000060121882289891AEB886A899A1A05E083
:1030500000180140001401406000002051436B88BB
:103060006A899A1AA3882789DB1B02FB131000F0D8
:103070003EFCC6E908012189EA885143A3886A8990
:1030800003FB12116288514322886B895A432389BA
:103090006F8803FB1723E28803FB0213A18879439F
:1030A0002788EA8807FB1212618902FB013000F0D1
:1030B0001EFCC6E90A014846BDE8F08738B504465B
:1030C0000D464FF47840A4F10A01009088B2012324
:1030D00014222946FFF7EFFA4FF478400090A5F14B
:1030E0000A0081B2142301222046FFF7E4FA38BD1A
:1030F0002DE9F04FA7B04FF00009CA4600202390F9
:10310000229083464FF4A074F025A010ADF878000B
:10311000A810ADF87A00BDF87800ADF87C0005EB9A
:10312000450081101EA8C18004EB44008010ADF85A
:1031300080001EA8C1884181BDF88000ADF88400E0
:10314000BDF87A101EA8C1810220FFF7BEF9002643
:1031500040E000202B46224601460090FFF7ABFAE4
:103160000FF2DC3B584600F033FAC01FA4EBC0005E
:10317000C0F34F074FF47840691000235A4600907F
:103180003846FFF763FC721CF3A124A800F0F0FCA2
:103190004FF478401022C2EB650291B200906010AB
:1031A000002324AAFFF752FCEC48FFF7A8FD1EAA53
:1031B00002EB860251881EAA32F82600FFF77EFF36
:1031C00000BF1AA901EB8600FFF717FE0028F8D010
:1031D000701CC6B2042EBCDB0CAA1AA91EA8FFF7ED
:1031E000B4FE00221346DDE91871384600F0B6FB44
:1031F00000D10DE11AA9C88900F08AFBCDE90001D0
:10320000DDE90E733A4600F091FACDE90401BDF80C
:10321000740000F07DFBCDE90001DDE90C733A4656
:1032200000F084FACDE90201DDE9042300F0D7F9CA
:10323000CDE90601DDE910733A4600F0D0F9CDE999
:103240000801DDE918733A4600F0E2FACDE90A0117
:1032500000F06BFB1FFA80F91AA9C88900F058FB2F
:10326000CDE90001DDE914733A4600F05FFACDE9DB
:103270000401BDF8740000F04BFBCDE90001DDE96D
:1032800012733A4600F052FACDE90201DDE9042357
:1032900000F0A5F9CDE90601DDE916733A4600F024
:1032A0009EF9CDE90801DDE918733A4600F0B0FA5D
:1032B000CDE90A0100F039FB1FFA80FABDF884005D
:1032C000484504DABDF88400A9EB000003E0BDF82E
:1032D0008400A0EB090080B223901EA8C08950454D
:1032E00004DA1EA8C089AAEB000003E01EA8C0896A
:1032F000A0EB0A0080B2229023980A2802DC2298D0
:103300000A2800DD84E00022954BDDE90C71384687
:1033100000F00CFACDE90A01DDE918733A4600F035
:1033200077FA904A03C200228D4BDDE90E713846D0
:1033300000F0FCF9CDE90A01DDE918733A4600F026
:1033400067FA884AC2E902010022854BDDE9107163
:10335000384600F0EBF9CDE90A01DDE918733A4689
:1033600000F056FA7F4AC2E9040100227C4BDDE9F5
:103370001271384600F0DAF9CDE90A01DDE9187377
:103380003A4600F045FA774AC2E906010022744B3A
:10339000DDE91471384600F0C9F9CDE90A01DDE92B
:1033A00018733A4600F034FA6E4AC2E90801002266
:1033B0006B4BDDE91671384600F0B8F9CDE90A012A
:1033C000DDE918733A4600F023FA664AC2E90A01B9
:1033D00000202B46224601460090FFF76CF90FF2C1
:1033E000881B584600F0F4F8A4EBC000C0F34F0768
:1033F0004FF47840691000235A4600903846FFF792
:1034000025FB5E48FFF77BFC012027B0BDE8F08F6D
:1034100000202B46224601460090FFF74CF90FF2A0
:10342000601B584600F0D4F8A4EBC000C0F34F076F
:103430004FF47840691000235A4600903846FFF751
:1034400005FB0FF24C1B584600F0C2F8A4EBC0007D
:10345000C0F34F074FF478400090102000EB650157
:1034600000235A463846FFF7F1FA4C48FFF747FC6D
:103470000020CAE72DE9F04F89B081460C460120B3
:10348000079006A8FFF7B9FC002852D0BDF81A0033
:1034900000F03EFA0546D4E902733A4600F046F9D8
:1034A00082468B46BDF8180000F032FA0746D4E990
:1034B00000532A4600F03AF952465B46CDE9000136
:1034C00000F08DF8CDE90201D4E904532A4600F05A
:1034D00086F8CDE9040100F028FAA9F80000BDF84B
:1034E0001A0000F015FA0746D4E908532A4600F0FE
:1034F0001DF982468B46BDF8180000F009FA074610
:10350000D4E906532A4600F011F952465B46CDE94C
:10351000000100F064F8CDE90201D4E90A532A461B
:1035200000F05DF8CDE9040100F0FFF9A9F8020010
:1035300001E000200790079809B0BDE8F08F000077
:10354000546F7563682043616C69627261746520B1
:103550002E2E2E2E2E2E000025640000A0860100A7
:103560000000F03F3000002043616C6962726174BA
:10357000652053756363656400000000400D03001F
:1035800043616C696272617465206661696C0000F8
:1035900074727920616761696E00000040420F001B
:1035A00010B5FEF785FFFFF7A4FB10BDD2B201E016
:1035B00000F8012B491EFBD270470022F6E710B538
:1035C00013460A4604461946FFF7F0FF204610BD91
:1035D000421C10F8011B0029FBD1801A70472DE90D
:1035E000FE4F804681EA0300C00F0C46009021F098
:1035F000004123F00045B8EB0200A94105D2404646
:10360000214690461C460B46024623F000401043DC
:1036100047D0270DC7F30A00C3F30A510290401A9E
:10362000019040286BDAC3F3130040F4801B00982C
:10363000924620B10023D2EB030A63EB0B0B0198F7
:103640005946C0F14002504600F0D1F906460D46F9
:1036500050465946019A00F0E9F910EB0800614123
:10366000002487EA115284EAE7731A4340D0009A93
:1036700062B3019A012A4FEA075215DC001B61EB85
:1036800002014FF0004202EA0752CDE90042001C5D
:1036900041F5801132462B4600F0E9F903B0BDE850
:1036A000F08F40462146F9E7001B61EB0201001C48
:1036B00041F5801300185B412018A2F5001747EB75
:1036C000030140EAD570B6196D4111E06D084FEA6B
:1036D000360645EAC0754FEA0752001B61EB02014E
:1036E000001C41F5801149084FEA30000019514192
:1036F00032462B4603B0BDE8F04F00F0A9B9009860
:10370000012240000023D0EB020263EBE07300983B
:1037100021464FEAE074B8EB000061EB0401E9E7F1
:1037200083F000435BE781F0004158E72DE9FE4F4D
:1037300081EA030404F0004421F0004100944FF0BA
:10374000000B23F0004350EA01045ED052EA030468
:103750005BD0C3F30A54C1F30A552C44A4F2F334EA
:103760000194A0FB0254C1F3130141F48011C3F38F
:10377000130343F4801301FB024400FB034E840A4D
:10378000970A44EA815447EA8357A4FB07680295E5
:103790008D0A05FB07854FEA932C04FB0C54270583
:1037A000029D4FEA065847EA1637B5EB08056EEB5F
:1037B000070C870E920E47EA811742EA8312A7FB95
:1037C0000201B6EB0B0164EB00042B0D43EA0C3352
:1037D0005E1844EB1C50DA465146E7FB0201C5F384
:1037E00013044FEA0B3343EA14534FEA0432019CAB
:1037F00043EA0603A4F10C040294009CCDE900B452
:1038000000F035F903B0BDE8F08F00200146F9E77C
:103810002DE9F04D81EA030404F0004B21F000454E
:1038200014464FF0000A23F0004150EA050220D070
:1038300054EA01021DD0C5F30A570246C5F313032B
:10384000C1F31300C1F30A5640F4801543F480130A
:10385000A7EB0608101BD64608F2FD3873EB0500EF
:1038600002D308F1010801E092185B41B8F1000FA2
:1038700003DA00200146BDE8F08D00204FF48011EE
:10388000064684460EE0171B73EB050705D3121B93
:1038900063EB050306434CEA010C49084FEA30008C
:1038A00092185B4150EA0107EDD152EA030012D0B1
:1038B00082EA040083EA0501084305D0101BAB41EE
:1038C00006D20122002306E000224FF0004302E06E
:1038D0006FF0010253101AEB06004CEB085110EB8D
:1038E0000A0041EB0B01BDE8F04D00F0B1B80EB598
:1038F000C10F80EAE0700844CA07002140F2334358
:103900008DE80E000A460B4600F0B1F803B000BD8A
:103910000EB540F2334102910021CDE900110A4673
:103920000B4600F0A4F803B000BDC1F30A5210B575
:10393000C1F3130140F2FF3341F480119A4201DADE
:10394000002010BD40F233439A42A2F2334203DC1E
:10395000524200F05BF810BD904010BD30B5041E1F
:1039600071F1000404DB4FF00044404264EB0101BC
:10397000141E73F1000405DB1C464FF00043524255
:1039800063EB04038B4208BF824230BD2DE9F05F38
:103990000546002092469B468846064681464024BE
:1039A0001BE0284641464746224600F02FF8534682
:1039B0005A46C01A914110D311461846224600F0CB
:1039C00016F82D1A67EB01084F4622460120002108
:1039D00000F00DF817EB00094E41201EA4F1010480
:1039E000DFDC484631462A464346BDE8F09F202AA0
:1039F00004DB203A00FA02F1002070479140C2F146
:103A0000200320FA03F3194390407047202A04DB77
:103A1000203A21FA02F00021704721FA02F3D04047
:103A2000C2F120029140084319467047202A06DB64
:103A3000CB17203A41FA02F043EAE07306E041FA7C
:103A400002F3D040C2F1200291400843194670476A
:103A500010B5141E73F1000408DA401C41F1000196
:103A600092185B411A4301D120F0010010BD2DE9ED
:103A7000F04D92469B4611B1B1FA81F202E0B0FAE4
:103A800080F220329046FFF7B2FF04460F4640EA2C
:103A90000A0041EA0B0153465A46084313D0114627
:103AA00053EA010019D0C8F140025046FFF7AEFFBB
:103AB00005460E46504659464246FFF798FF0843D2
:103AC00005D0012004E020463946BDE8F08D0020F5
:103AD000054346EAE0762C4337430A986305E40A37
:103AE000A0EB08000022FD0A44EA47540A3002D540
:103AF00000200146E9E7010510196941DDE90845A3
:103B000000196941BDE8F04DA2E70000064C074DE1
:103B100006E0E06840F0010394E80700984710349D
:103B2000AC42F6D3FCF708FB144600083446000804
:103B30000148008870470000000002604FF0C0415B
:103B4000088070470149088070470000000002604B
:103B50000FB4054B10B503A9044A029800F02CF8E5
:103B600010BC5DF814FB0000171900086400002069
:103B70000FB4084B10B504A902AA039800F01CF872
:103B8000044602A9002000F048FA204610BC5DF867
:103B900014FB00001B40000802E008C8121F08C107
:103BA000002AFAD170477047002001E001C1121FBE
:103BB000002AFBD1704700002DE9FF4F8DB00F4662
:103BC0000546002606E025280BD0DDE90F129047B8
:103BD0006D1C761C28780028F5D111B03046BDE860
:103BE000F08F0024A246A1460122EC4900E00443E4
:103BF00015F8013F203B02FA03F00842F7D128787C
:103C00002A2810D06FF02F022878A0F1300109295E
:103C100014D80AEB8A0102EB410144F0020400EBE4
:103C2000010A6D1CF0E701CF5FEA000A03D544F4F6
:103C30000054CAF1000A44F002046D1C28782E28B2
:103C400017D115F8010F44F004042A280ED06FF0A4
:103C50002F022878A0F1300109290AD809EB89013F
:103C600002EB410100EB01096D1CF2E757F8049BE0
:103C70006D1C28786C280FD006DC4C2817D06828DB
:103C80000DD06A2814D104E0742810D07A280FD1FE
:103C90000DE044F400140AE044F4801401E044F41C
:103CA00040146978814202D104F580146D1C6D1CAA
:103CB0002A786E2A1FD00CDC632A31D004DC002A5B
:103CC0008BD0582A11D1A3E0642A68D0692A0CD17C
:103CD00065E0732A2ED004DC6F2A73D0702A04D1D9
:103CE0009BE0752A6FD0782A6ED01046DDE90F125E
:103CF0009047761C50E1C4F30250022806D00328F6
:103D000009D0042801CF09D0066045E101CFF117A1
:103D1000C0E9006140E101CF06803DE106703BE172
:103D200017F8040B8DF8000000208DF80100EB4619
:103D3000012003E057F804BB4FF0FF3061074FF05C
:103D4000000102D40DE008F10101884649450FDA6F
:103D50008045F8DB1BF808100029F4D108E008F1D1
:103D6000010188468142FADB1BF808100029F6D1D0
:103D7000DDE90F23AAEB08008146214600F036F961
:103D8000304400EB080604E0DDE90F121BF8010BDC
:103D90009047B8F10108F7D221464846F7E00A21DA
:103DA000C4F302534FF0000B0891022B04D001CF53
:103DB000C117032B09D00AE0FF1D27F00707F7E81A
:103DC000020108E032E01FE020E000B2C117042B3E
:103DD00001D140B2C117031E71F1000307DA4FF0A1
:103DE000000CD0EB0C006CEB01012D2302E023054D
:103DF00004D52B238DF82430012303E0E30701D001
:103E00002023F7E7984658E00A2110E010210EE041
:103E100010204FF0000B08900CE010214FF0000B29
:103E200044F004044FF00809089103E008214FF022
:103E3000000B0891C4F30253022B04D001CF0021E0
:103E4000032B06D006E0FF1D27F00707F7E8020165
:103E500003E080B2042B00D1C0B24FF0000823076A
:103E60002BD5702A07D0DDF820C08CF0100C5CEA4E
:103E70000B0C05D00EE040238DF82430012308E020
:103E800050EA010306D030238DF824308DF8252028
:103E900002239846DDF820C08CF0080C5CEA0B0C7D
:103EA0000BD150EA010301D1630706D530238DF809
:103EB00024304FF00108A9F10109582A04D038A292
:103EC0000B9208AA0A920BE03AA2F9E75B46089A1D
:103ED000FFF75CFD0B9B9B5C0A9A521E0A921370C3
:103EE00050EA0102F2D10A98ADEB000000F1200B7C
:103EF000600702D524F4803401E04FF00109D94570
:103F000002DDA9EB0B0000E0002000EB0B014144B7
:103F10000890AAEB010AE00306D4DDE90F2321464D
:103F2000504600F063F806444FF0000908E009A984
:103F300011F80900DDE90F12904709F10109761C1B
:103F4000C145F4DBE0030CD5DDE90F2321465046E3
:103F500000F04CF8064404E0DDE90F1230209047F1
:103F6000761C0899481E08900029F5DC08E00A989C
:103F70000A990078491C0A91DDE90F129047761CD6
:103F8000BBF10001ABF1010BF1DC21465046DDE94C
:103F90000F2300F019F806446D1C1BE609280100E8
:103FA00030313233343536373839616263646566AF
:103FB0000000000030313233343536373839414271
:103FC00043444546000000002DE9F0410446002529
:103FD0001E461746880404D405E039462020B04721
:103FE0006D1C641EF9D52846BDE8F0812DE9F0412D
:103FF000044600251E469046C80301D5302700E040
:104000002027880404D505E041463846B0476D1C9A
:10401000641EF9D52846BDE8F0810A68531C0B6080
:104020001070704700000000000000000000000059
:1040300000000000000000183C3C3C181800181854
:10404000000000000000006666660000000000003E
:10405000000000000000006C6CFE6C6C6CFE6C6C70
:10406000000000000018183C66060C183060663C22
:104070001818000000000E1B5B6E30180C76DAD8A2
:10408000700000000000001C36361C06F66666DC78
:1040900000000000000000181818000000000000D8
:1040A000000000000000003018180C0C0C0C0C185C
:1040B000183000000000000C181830303030301874
:1040C000180C000000000000006C38FE386C000086
:1040D00000000000000000000018187E1818000002
:1040E0000000000000000000000000000000383860
:1040F00030180000000000000000007E00000000FA
:10410000000000000000000000000000000038383F
:10411000000000000000006060303018180C0C0631
:104120000600000000000078CCECECCCDCDCCC78A5
:104130000000000000000030383E303030303030B9
:10414000000000000000003C66666030180C067E2F
:10415000000000000000003C666660386066663C57
:10416000000000000000000C0C6C6C6C66FE6060CF
:10417000000000000000007E0606063E6060301E63
:104180000000000000000038180C3E666666663CC1
:10419000000000000000007E60303018180C0C0C8D
:1041A000000000000000003C66666E3C7666663CDF
:1041B000000000000000003C666666667C30181C4B
:1041C000000000000000000000383800000038380F
:1041D00000000000000000000038380000003838FF
:1041E000301800000000006030180C060C18306019
:1041F000000000000000000000007E007E000000C3
:1042000000000000000000060C18306030180C069A
:10421000000000000000003C666630181800181806
:10422000000000000000007EC3C3F3DBDBF303FEED
:1042300000000000000000183C6666667E66666648
:10424000000000000000003E6666663E6666663E50
:10425000000000000000003C666606060666663C3C
:10426000000000000000001E366666666666361EA8
:10427000000000000000007E0606063E0606067EE0
:10428000000000000000007E0606063E0606060648
:10429000000000000000003C666606067666667C4C
:1042A00000000000000000666666667E6666666660
:1042B000000000000000003C181818181818183CDE
:1042C0000000000000000060606060606066663CA6
:1042D00000000000000000666636361E3636666650
:1042E0000000000000000006060606060606067E20
:1042F00000000000000000C6C6EED6D6D6C6C6C670
:1043000000000000000000C6C6CEDEF6E6C6C6C647
:10431000000000000000003C666666666666663C5B
:10432000000000000000003E6666663E06060606C7
:10433000000000000000003C666666666666663C3B
:10434000306000000000003E6666663E36666666C7
:10435000000000000000003C66060C183060663C5F
:10436000000000000000007E18181818181818180F
:104370000000000000000066666666666666663CD1
:1043800000000000000000666666666666663C180F
:1043900000000000000000C6C6C6D6D6D66C6C6C05
:1043A0000000000000000066662C1818346666667F
:1043B00000000000000000666666663C18181818C9
:1043C000000000000000007E606030180C06067ED1
:1043D000000000000000003C0C0C0C0C0C0C0C0C41
:1043E0000C0C3C0000000006060C0C181830306065
:1043F000600000000000003C3030303030303030A1
:1044000030303C0000183C66000000000000000056
:10441000000000000000000000000000000000009C
:104420000000FF00001C1830000000000000000029
:104430000000000000000000003C60607C66667CBC
:104440000000000000000006063E66666666663EE6
:104450000000000000000000003C66060606663C06
:104460000000000000000060607C66666666667C96
:104470000000000000000000003C66667E06063C6E
:1044800000000000000000780C0C0C7E0C0C0C0CE2
:104490000000000000000000007C66666666667C26
:1044A00060603E0000000006063E66666666666660
:1044B0000000000000001818001E18181818187EB8
:1044C0000000000000003030003C30303030303030
:1044D00030301E0000000006066666361E36666630
:1044E000000000000000001E181818181818187E88
:1044F0000000000000000000007ED6D6D6D6D6C64A
:104500000000000000000000003E66666666666609
:104510000000000000000000003C66666666663C25
:104520000000000000000000003E66666666663E11
:104530000606060000000000007C66666666667C73
:1045400060606000000000000066760E0606060649
:104550000000000000000000007C06063C60603E99
:10456000000000000000000C0C7E0C0C0C0C0C7801
:104570000000000000000000006666666666667C5B
:1045800000000000000000000066666666663C18D9
:10459000000000000000000000C6D6D6D6D66C6C25
:1045A00000000000000000000066663C183C6666E3
:1045B0000000000000000000006666666666663C5B
:1045C00030180F0000000000007E6030180C067EDE
:1045D00000000000000000301818180C060C181815
:1045E00018300000000000181818181818181818AB
:1045F000181818000000000C18181830603018182F
:10460000180C00000000008EDB71000000000000AC
:104610000000000034460008000000206800000090
:10462000983B00089C460008680000200004000039
:10463000A83B000800A24A0400000000000000009F
:104640000102030406070809000000000102030438
:10465000010203040607080902040608000000001E
:1046600000000000925ED4EE5701B63F2BA226FA5E
:104670007C9451BF3CF54883DBEA13C079E92631CD
:1046800008AC5CBF08E8BE9CD9AEB03F1C5C3AE603
:0C4690003CA32AC0000000000000000055
:0400000508000131BD
:00000001FF
